:020000040800F2
:1000000000000520ED46000881170008831700084E
:1000100085170008871700088917000800000000EE
:100020000000000000000000000000008B17000826
:100030008D170008000000008F1700083D470008DA
:100040003D4700083D4700083D4700083D47000880
:100050003D4700083D4700083D4700083D47000870
:100060003D4700083D4700083D470008911700083C
:100070003D4700083D4700083D4700083D47000850
:100080003D470008A11700083D4700083D4700080C
:100090003D4700083D4700083D470008B1170008EC
:1000A0003D4700083D4700083D4700083D47000820
:1000B000BD1700083D4700083D470008CD17000860
:1000C000DD1700083D4700083D470008ED17000810
:1000D000FD1700080D1800080F1800081118000877
:1000E0003D4700083D4700083D4700083D470008E0
:1000F0003D4700083D4700083D4700083D470008D0
:100100003D4700083D4700083D4700083D470008BF
:100110003D4700083D4700083D4700083D470008AF
:100120003D4700083D470008151800083D470008F6
:100130003D4700083D4700083D4700083D4700088F
:100140003D4700083D4700083D4700083D4700087F
:10015000251800083D4700083D47000835180008ED
:100160003D4700083D4700083D4700083D4700085F
:100170003D4700083D470008000000000000000067
:100180003D4700083D4700083D4700083718000874
:10019000391800083D470008000000003D470008EE
:1001A000491800084B18000800000000000000007B
:1001B0003D47000800000000000000003D47000827
:1001C0003D4700083D4700083D4700083D470008FF
:0801D0003D4700083D4700080F
:1001D8000348044B834202D0034B03B118477047CE
:1001E8000C0000200C000020000000000548064913
:1001F800091A891001EBD171491002D0034B03B1E0
:10020800184770470C0000200C0000200000000078
:1002180010B5064C237843B9FFF7DAFF044B13B146
:100228000448AFF300800123237010BD0C000020A8
:10023800000000004047000808B5044B1BB1044902
:100248000448AFF30080BDE80840CFE70000000095
:10025800100000204047000870B50D4E0D4D761B6C
:10026800B61006D00024013455F8043B9847A6423E
:10027800F9D1094E094D761B04F05EFAB61006D086
:100288000024013455F8043B9847A642F9D170BDC3
:100298008047000880470008844700088047000816
:1002A800F0B4860743D0541E002A3ED0CAB2034693
:1002B80002E014F1FF3438D303F8012B9D07F8D17D
:1002C800032C2BD9CDB245EA05250F2C45EA054567
:1002D80016D9A4F110073F0903F1200606EB07160B
:1002E80003F1100242E9045542E902551032B242C4
:1002F800F8D104F00F040137032C03EB07130DD9D1
:100308001E462246043A032A46F8045BFAD8221FFE
:1003180022F003020432134404F003042CB1C9B2DE
:100328001C4403F8011B9C42FBD1F0BC70471446E7
:100338000346C5E753B94AB9002908BF00281CBFBE
:100348004FF0FF314FF0FF3000F072B9ADF1080CFB
:100358006DE904CE00F006F8DDF804E0DDE90223DB
:1003680004B070472DE9F047089E04468846002BE4
:100378004BD18A42154667D9B2FA82F24AB1C2F124
:10038800200701FA02F320FA07F7954047EA030825
:1003980094404FEA154E230CB8FBFEF71FFA85FC74
:1003A8000EFB178843EA084307FB0CF1994209D969
:1003B800EB1807F1FF3080F01B81994240F2188159
:1003C800023F2B445B1AA4B2B3FBFEF00EFB1033C2
:1003D80044EA034400FB0CFCA44509D92C1900F19C
:1003E800FF3380F00781A44540F2048102382C4491
:1003F80040EA0740A4EB0C0400271EB1D4400023B8
:10040800C6E900433946BDE8F0878B4209D9002E7A
:1004180000F0EB800027C6E9000138463946BDE800
:10042800F087B3FA83F7002F47D18B4202D3824279
:1004380000F2FA80841A61EB030301209846002E2B
:10044800E0D0C6E90048DDE702B9FFDEB2FA82F281
:10045800002A40F08F80491B4FEA154E1FFA85F895
:100468000127B1FBFEFC230C0EFB1C1143EA0143E0
:1004780008FB0CF1994207D9EB180CF1FF3002D2B6
:10048800994200F2CD808446591AA3B2B1FBFEF01E
:100498000EFB101443EA044408FB00F8A04507D9F2
:1004A8002C1900F1FF3302D2A04500F2B68018469D
:1004B800A4EB080440EA0C409FE7C7F1200CBB40BE
:1004C80022FA0CFE4EEA030E01FA07F420FA0CF5A4
:1004D80021FA0CF34FEA1E482543B3FBF8F92C0C1C
:1004E80008FB19331FFA8EFA44EA034309FB0AF49E
:1004F8009C4202FA07F200FA07F10BD91EEB03033C
:1005080009F1FF3080F087809C4240F28480A9F195
:10051800020973441B1BADB2B3FBF8F008FB1033A0
:1005280045EA034400FB0AFAA24508D91EEB040475
:1005380000F1FF336BD2A24569D90238744440EA0E
:100548000940A0FB0289A4EB0A044C45C2464B466D
:1005580054D351D0002E69D0B1EB0A0564EB0304E3
:1005680004FA0CFCFD40FC404CEA0505C6E90054C1
:10057800002747E7C2F1200320FA03F7954001FA64
:1005880002F021FA03F34FEA154E3843010CB3FB8E
:10059800FEF71FFA85F80EFB173341EA034107FB04
:1005A80008F38B4204FA02F407D9691807F1FF3CF3
:1005B8002FD28B422DD9023F2944CB1A81B2B3FBEB
:1005C800FEF00EFB103341EA034100FB08F38B42B7
:1005D80007D9691800F1FF3C17D28B4215D90238A8
:1005E8002944C91A40EA07473BE73746304609E736
:1005F8000746E7E61846FBE64145ABD2B8EB020AE8
:1006080069EB0E0201381346A4E76046E9E718468D
:1006180095E76746D1E781467CE702382C4447E7EF
:10062800ACF1020C2B442FE7384608E73746E9E6D9
:10063800704700BF30B595B03422002107A8FFF7F6
:100648002FFE0024029403940494059406940094C5
:100658001B4B1A6C42F080521A641B6C03F08053D7
:100668000093009B0194174B1A6842F440421A60A9
:100678001B6803F440430193019B012307934FF444
:100688008033089302250D954FF480030E930423BD
:100698000F936423109311951295139507A803F0EF
:1006A8000BF90F230293039504944FF48053059399
:1006B8000694032102A803F01BF815B030BD00BF53
:1006C800003802400070004008B503F0D7FDFFF77E
:1006D800B1FF00F02BF800F0ADF900F017F900F0C9
:1006E80081F900F0E3F900F085FA00F0A3FA00F0D0
:1006F800C9FD00F023FE00F07DFE00F0EBFE00F0E7
:1007080043FF00F0DFFF00F055FC00F0EDFC00F0C7
:10071800ADFA00F05DFDFEE708B50368B3F1804F60
:1007280000D008BD03F0C4FDFBE770472DE9F04792
:100738008CB000240794089409940A940B940194AB
:100748006B4B1A6B42F010021A631A6B02F010021C
:100758000192019A02941A6B42F004021A631A6B0E
:1007680002F004020292029A03941A6B42F0800289
:100778001A631A6B02F080020392039A04941A6BAC
:1007880042F001021A631A6B02F001020492049A01
:1007980005941A6B42F002021A631A6B02F0020205
:1007A8000592059A06941A6B42F008021A631B6BAD
:1007B80003F008030693069BDFF84091224648F2AF
:1007C8009051484603F01EFB4A4E22464FF4716191
:1007D800304603F017FB484F22464FF4064138468F
:1007E80003F010FBDFF8188122464FF45A514046B7
:1007F80003F008FBDFF80CA122464FF48071504645
:1008080003F000FB01224FF48051304603F0FAFA5E
:1008180001221F21404603F0F5FA48F2905307934E
:100828000125089509940A9407A9484603F00CFA8B
:100838004EF2020307930894099507A9304603F07E
:1008480003FA0795DFF8C090CDF82090099407A91E
:10085800304603F0F9F941F61073079308950994A7
:100868000A9407A9304603F0EFF904230793089484
:10087800099407A9384603F0E7F94FF406430793AC
:10088800089509940A9407A9384603F0DDF94FF44E
:100898005A530793089509940A9407A9404603F008
:1008A800D3F94FF480760796089509940A9407A916
:1008B800504603F0C9F91F2307931123089309949D
:1008C8000A9407A9404603F0BFF90796CDF820908F
:1008D800099407A9384603F0B7F92246214617209C
:1008E80003F08AFC172003F0BBFC0CB0BDE8F087CE
:1008F8000038024000080240000402400010024094
:10090800000C0240000002400000111000B585B044
:10091800002300930193029303931548154A02603C
:100928004FF48032426083600361037680F82030A0
:10093800C362114A8262C3600122C26180F830300A
:10094800426101F071F860B900230093012201921D
:1009580002936946064801F093F828B905B05DF896
:1009680004FBFFF7E2FEEFE7FFF7DFFEF6E700BF65
:1009780028000020002001400100000F00B589B0C8
:10098800002303930493059306930793026803F1E6
:10099800804303F590339A4202D009B05DF804FB16
:1009A8000021019103F58C335A6C42F480725A6429
:1009B8005A6C02F480720192019A02911A6B42F009
:1009C80001021A631B6B03F001030293029B0F23BE
:1009D80003930323049303A9014803F035F9DCE7E3
:1009E8000000024008B50548054B036001F01AF9FC
:1009F80000B908BDFFF799FEFBE700BF70000020B3
:100A0800003002400268094B9A4200D0704782B019
:100A180000230193064B1A6B42F480521A631B6B36
:100A280003F480530193019B02B0704700300240E9
:100A38000038024010B582B0002400941A4B1A6B9B
:100A480042F400121A631A6B02F400120092009A20
:100A580001941A6B42F480021A631B6B03F480033F
:100A68000193019B224621460B2003F0C5FB0B2076
:100A780003F0F6FB22462146112003F0BDFB1120AE
:100A880003F0EEFB224621463A2003F0B5FB3A205C
:100A980003F0E6FB22462146442003F0ADFB442048
:100AA80003F0DEFB02B010BD0038024008B50B4869
:100AB8000B4B03600B4B436000238360C3604FF410
:100AC8008042026143618361C361036201F096FA67
:100AD80000B908BDFFF729FEFBE700BFD8000020DA
:100AE80000540040A086010070B588B0002303932D
:100AF80004930593069307930268374B9A4201D0F3
:100B080008B070BD044600250195344E336B43F0A0
:100B180002033363336B03F002030193019BC02389
:100B280003931223049301230593032306930423B9
:100B3800079303A92A4803F087F80295336C43F416
:100B480000133364336C03F400130293029B2548AB
:100B5800254B03604FF0007343608560C5604FF418
:100B68008063036145618561C5610562456203F083
:100B7800C5F958BB1B4BA3639C631C481C4B036003
:100B88004FF000734360402383600023C3604FF439
:100B98008062026143618361C3610362436203F05F
:100BA800ADF9B0B9114B63639C63002211461F2055
:100BB80003F022FB1F2003F053FB002211462020E4
:100BC80003F01AFB202003F04BFB99E7FFF7ADFD7C
:100BD800D0E7FFF7AAFDE5E70054004000380240DF
:100BE800000402402C010020106002407800002020
:100BF800A060024008B50D480D4B03604FF48273A6
:100C0800436000238360C360036143614FF4802223
:100C18008261C3610362436283620A23C36202F092
:100C28001BF800B908BDFFF780FDFBE73C02002078
:100C38000030014008B50B480B4B036000234360AC
:100C48008360C360036143618361036243628362BB
:100C58000A23C36202F000F800B908BDFFF765FD7A
:100C6800FBE700BF8C0100200038004008B50D48A4
:100C78000D4B03604FF48273436000238360C360AD
:100C8800036143614FF480228261C361036243625E
:100C980083620A23C36201F0DFFF00B908BDFFF7D2
:100CA80044FDFBE7E401002000340140F0B58DB0BD
:100CB80000230793089309930A930B9303686C4ADC
:100CC800934208D06B4A934265D06B4A934200F036
:100CD800A2800DB0F0BD044600250095674B5A6C04
:100CE80042F480525A645A6C02F480520092009A7C
:100CF80001951A6B42F001021A631B6B03F00103A2
:100D08000193019BF02307930223089303230A937B
:100D180005230B9307A95A4802F096FF59485A4BE6
:100D280003604FF0C06343608560C5604FF4806323
:100D3800036145618561C5610562456203F0DEF8BE
:100D480018BB504BE3649C635048514B03604FF011
:100D5800C0634360402383600023C3604FF4806214
:100D6800026143618361C3610362436203F0C6F8B1
:100D780070B9464BA3649C6300221146232003F0FC
:100D88003BFA232003F06CFAA3E7FFF7CEFCD8E781
:100D9800FFF7CBFCEDE700240294384B1A6C42F4C1
:100DA80080421A641A6C02F480420292029A0394F6
:100DB8001A6B42F004021A631A6B02F004020392DF
:100DC800039A04941A6B42F002021A631B6B03F035
:100DD80002030493049B0C23079302270897032616
:100DE8000A9605250B9507A92A4802F02DFF4FF40E
:100DF80040530793089709940A960B9507A9264824
:100E080002F022FF22462146242003F0F5F924208F
:100E180003F026FA5DE700240594184B5A6C42F457
:100E280000525A645A6C02F400520592059A0694CC
:100E38001A6B42F010021A631B6B03F0100306933F
:100E4800069B4FF4C35307930223089303230A9383
:100E580005230B9307A9114802F0F6FE2246214606
:100E6800542003F0C9F9542003F0FAF931E700BF20
:100E78000030014000380040003401400038024092
:100E8800000002409402002040640240F402002066
:100E9800886402400008024000040240001002403A
:100EA80082B00368104A934204D0104A93420ED08D
:100EB80002B07047002300930D4B5A6C42F00102B8
:100EC8005A645B6C03F001030093009BF0E7002376
:100ED8000193074B1A6C42F002021A641B6C03F070
:100EE80002030193019BE3E7000001400004004076
:100EF8000038024070B588B000230393049305932B
:100F0800069307930368254A934204D0244A9342E0
:100F18002ED008B070BD00240094224B1A6B42F00A
:100F280010021A631A6B02F010020092009A0194E0
:100F38001A6B42F001021A631B6B03F00103019361
:100F4800019B4FF4C4430393022604960125079599
:100F580003A9154802F078FE4FF400730393049632
:100F680005940694079503A9104802F06DFED0E792
:100F7800002302930B4B1A6B42F002021A631B6B9D
:100F880003F002030293029B332303930223049387
:100F9800079303A9064802F057FEBAE7000001408C
:100FA80000040040003802400010024000000240E7
:100FB8000004024010B596B00024129413941494BF
:100FC80015941094119409940A940B940C940D940C
:100FD8000E940F942022214601A8FFF761F940489A
:100FE800404B036044608460C46004614461846170
:100FF80002F008F9002855D116A94FF4805341F89A
:10100800103D374802F02BFA00284ED1344802F040
:101018002BF900284CD1324802F00DF900284AD1AA
:1010280000231093119310A92D4802F085FA002887
:1010380044D16023099300220A920B920C920D92DC
:101048000E920F9209A9264802F08FF9002838D18C
:10105800042209A9224802F088F9002834D108227C
:1010680009A91F4802F081F988BB16A9002341F895
:10107800343D0C221A4802F049F958BB0023019369
:1010880002930393049305934FF400520692089336
:1010980001A9134802F094FAF8B91148FFF72AFF9A
:1010A80016B010BDFFF741FBA6E7FFF73EFBADE723
:1010B800FFF73BFBAFE7FFF738FBB1E7FFF735FB7F
:1010C800B7E7FFF732FBC3E7FFF72FFBC7E7FFF7E9
:1010D8002CFBCAE7FFF729FBD0E7FFF726FBDCE785
:1010E800940300200000014000B58FB000230A934C
:1010F8000B930C930D930893099301930293039315
:1011080004930593069307932F48304A026043607F
:101118008360C3600361836102F074F800283AD1E8
:101128000EA94FF4805341F8103D274802F097F973
:10113800002833D1244802F097F8002831D1002341
:101148000893099308A9204802F0F6F960BB6023C8
:101158000193002202920392059201A91A4802F013
:1011680004F920BB04220DEB0201174802F0FDF838
:1011780000BB082201A9144802F0F7F8E8B90C22CC
:1011880001A9114802F0F1F8D0B90F48FFF7B2FEF3
:101198000FB05DF804FBFFF7C8FAC1E7FFF7C5FA1F
:1011A800C8E7FFF7C2FACAE7FFF7BFFACFE7FFF7CA
:1011B800BCFAD7E7FFF7B9FADBE7FFF7B6FADEE7DD
:1011C800FFF7B3FAE1E700BF540300200004004032
:1011D80010B590B0002409940A940B940C940D94C3
:1011E8000E940F940694224B1A6C42F000421A6433
:1011F8001A6C02F000420292029A1A6B42F0100234
:101208001A631B6B03F010030193019B03230393E1
:10121800022204920593012307930823089303A944
:10122800144803F04DF9144BDB68144B83F853430F
:101238004FF400229A604FF4E13309930A940B9417
:101248000C940C230D930E940F940D4C09A9204671
:1012580003F04EF8236923F490432361636923F074
:101268002A036361E36843F40053E36010B010BDE0
:10127800003802400010024000ED00E000E100E00C
:10128800007C004010B590B0002409940A940B9497
:101298000C940D940E940F940694234B5A6C42F0C0
:1012A80040025A645A6C02F040020292029A1A6B87
:1012B80042F008021A631B6B03F008030193019BB9
:1012C8004FF440430393022304930323059301231C
:1012D80007930B23089303A9144803F0F1F8144B60
:1012E800DB68144B83F858434FF080729A604FF4D0
:1012F800E13309930A940B940C940C230D930E94E8
:101308000F940D4C09A9204602F0F2FF236923F43B
:1013180090432361636923F02A036361E36843F41C
:101328000053E36010B010BD00380240000C0240CA
:1013380000ED00E000E100E00018014030B591B098
:10134800002409940A940B940C940D940E940F9411
:101358000694234B5A6C42F080025A645A6C02F08D
:1013680080020292029A1A6B42F010021A631B6BF7
:1013780003F010030193019B0C25039502230493AA
:1013880003230593012307930B2308930DEB050112
:10139800144803F095F8144BDB68144B83F8594351
:1013A8004FF000729A604FF4E13309930A940B945A
:1013B8000C940D950E940F940D4C09A9204602F03B
:1013C80097FF236923F490432361636923F02A0379
:1013D8006361E36843F40053E36011B030BD00BFBC
:1013E800003802400010024000ED00E000E100E09B
:1013F800001C01402DE9F04190B0002409940A94A2
:101408000B940C940D940E940F9406942D4B5A6CD7
:1014180042F010025A645A6C02F010020292029AC8
:101428001A6B42F001021A631B6B03F0010301936C
:10143800019B4FF4044303934FF00208CDF810804A
:101448000327059701230793072608961E4D03A92E
:10145800284603F035F84FF4C0530393CDF81080B5
:10146800059706940794089603A9284603F028F8D8
:10147800164BDB68164B83F8254320225A604FF43D
:10148800E13309930A940B940C940C230D934FF4B5
:1014980040730E930F9404F1804404F5883409A92D
:1014A800204602F025FF236923F4904323616369F2
:1014B80023F02A036361E36843F40053E36010B048
:1014C800BDE8F081003802400000024000ED00E075
:1014D80000E100E010B590B0002409940A940B9440
:1014E8000C940D940E940F940694224B1A6C42F4AB
:1014F80000321A641A6C02F400320292029A1A6BD1
:1015080042F008021A631B6B03F008030193019B66
:101518006023039302230493032305930123079372
:101528000723089303A9144802F0CAFF134BDB688A
:10153800134B83F8264340225A604FF4E133099352
:101548000A940B940C940C230D930E940F940D4C49
:1015580009A9204602F0CCFE236923F490432361B5
:10156800636923F02A036361E36843F40053E3608B
:1015780010B010BD00380240000C024000ED00E041
:1015880000E100E0004400402DE9F04192B0002461
:101598000B940C940D940E940F9410941194089439
:1015A800414B1A6C42F480221A641A6C02F48022AD
:1015B8000492049A1A6B42F004021A631A6B02F03E
:1015C80004020392039A1A6B42F002021A631A6B1E
:1015D80002F002020292029A1A6B42F008021A639F
:1015E8001B6B03F008030193019B2023059302273B
:1015F8000697032607964FF00108CDF824800725A3
:101608000A9505A9294802F05BFF4FF4804305932A
:1016180006970796089409940A9505A9244802F0A4
:101628004FFF4FF480730593069707960894CDF8FB
:1016380024800A95DFF8888005A9404602F040FF1B
:101648004FF40063059306970796089409940A9542
:1016580005A9404602F034FF164BDB68164B83F8A9
:10166800274380225A604FF4E1330B930C940D9476
:101678000E940C230F934FF44073109311940F4C56
:101688000BA9204602F034FE236923F4904323611A
:10169800636923F02A036361E36843F40053E3605A
:1016A80012B0BDE8F08100BF0038024000080240D7
:1016B8000004024000ED00E000E100E000480040C6
:1016C800000C024010B590B0002409940A940B94C1
:1016D8000C940D940E940F940694224B5A6C42F07D
:1016E80020025A645A6C02F020020292029A1A6B83
:1016F80042F004021A631B6B03F004030193019B7D
:10170800C023039302230493032305930123079320
:101718000823089303A9144802F0D2FE134BDB6890
:10172800134B83F8474380229A604FF4E1330993BF
:101738000A940B940C940C230D930E940F940D4C57
:1017480009A9204602F0D4FD236923F490432361BC
:10175800636923F02A036361E36843F40053E36099
:1017680010B010BD003802400008024000ED00E053
:1017780000E100E0001401407047FEE7FEE7FEE7E5
:10178800FEE770477047704708B5024802F030FC22
:1017980008BD00BF2C01002008B5024802F028FC53
:1017A80008BD00BF7800002008B54FF4807002F033
:1017B80031FB08BD08B5024801F002FC08BD00BFB6
:1017C800D403002008B5024801F01EF908BD00BF87
:1017D800D800002008B5024801F0DCF908BD00BFB8
:1017E800D800002008B5024801F078FA08BD00BF0B
:1017F8003C02002008B5024801F070FA08BD00BF9D
:101808008C010020704770477047000008B50248F7
:1018180002F0EEFB08BD00BF9402002008B50248A4
:1018280002F0E6FB08BD00BFF402002070477047D5
:1018380008B5024801F052FA08BD00BFE4010020D3
:101848007047704782B0002100910B4B5A6C42F4EC
:1018580080425A645A6C02F480420092009A0191C4
:101868001A6C42F080521A641B6C03F08053019387
:10187800019B02B0704700BF0038024010B588B025
:10188800002201461C2002F0B7FC1C2002F0E8FCF4
:1018980000240194144B1A6C42F001021A641B6C68
:1018A80003F001030193019B02A903A801F0E6FFDD
:1018B80001F0D4FF43000D48A0FB03239B0C013B20
:1018C8000B484FF08042026040F2E732C26043604A
:1018D8000461846001F096FC10B1012008B010BDCD
:1018E800034801F056FBF9E70038024083DE1B434A
:1018F800D40300204A4B5A6822F440325A605A688E
:1019080041680A435A600268536823F4807353603D
:1019180002685368016943EA012353600268536807
:1019280023F0407353600268536881680B43536027
:101938000268936823F40063936002689368C1683F
:101948000B439360826A374B9A424BD00268936884
:1019580023F07063936002689368816A0B43936015
:101968000268936823F04053936002689368C16AE1
:101978000B4393600268936823F002039360026844
:101988009368017E43EA4103936090F82030002B6E
:1019980033D10268536823F4006353600268D36A42
:1019A80023F47003D3620168CB6AC269013A43EA3F
:1019B8000253CB620268936823F400739360026851
:1019C800936890F8301043EA412393600268936863
:1019D80023F48063936002689368416943EA812332
:1019E800936070470268936823F07063936002689D
:1019F800936823F040539360BCE70268536843F44C
:101A0800006353600268536823F4604353600168BD
:101A18004B68426A013A43EA42334B60BEE700BF73
:101A2800002301400100000F38B310B50446036CD1
:101A380043B1236C13F0100F0BD00120002384F85E
:101A48003C3010BDFEF79AFF0023636484F83C30F5
:101A5800EFE7236C23F4885323F0020343F00203D7
:101A680023642046FFF746FF00206064236C23F0C0
:101A7800030343F001032364E0E7012070470000FB
:101A880030B482B00023019390F83C30012B00F071
:101A9800BD80012380F83C300B68092B3ED90568CE
:101AA800EA689BB203EB43031E3B072404FA03F3E3
:101AB80022EA0303EB600568EA688C680B8803EB8D
:101AC80043031E3B04FA03F31343EB604B68062BF6
:101AD8003AD805686A6B03EB8303053B1F2404FAB5
:101AE80003F322EA03036B6305686A6B4B6803EB35
:101AF8008303053B0C8804FA03F313436B63026802
:101B0800434B9A4250D00268414B9A4259D0002325
:101B180080F83C30184602B030BC704705682A6926
:101B28009BB203EB4303072404FA03F322EA0303FB
:101B38002B6105682A698C680B8803EB430304FA58
:101B480003F313432B61C1E70C2B16D805682A6BE6
:101B580003EB8303233B1F2404FA03F322EA030362
:101B68002B6305682A6B4B6803EB8303233B0C88C4
:101B780004FA03F313432B63C1E70568EA6A03EB2E
:101B88008303413B1F2404FA03F322EA0303EB62B5
:101B98000568EA6A4B6803EB8303413B0C8804FA47
:101BA80003F31343EB62AAE70B68122BABD1194B73
:101BB8005A6822F400025A605A6842F480025A6055
:101BC800A1E70B68144A934201D0112B9FD1114B06
:101BD8005A6822F480025A605A6842F400025A6035
:101BE8000A680D4B9A4292D10C4B1B680C4AA2FB17
:101BF80003239B0C03EB83035A00019202E0019B31
:101C0800013B0193019B002BF9D180E7022082E779
:101C180000200140002301401200001008000020AD
:101C280083DE1B4358B110B5044643791BB1012329
:101C38006371002010BD0371FEF7E4FEF7E7012091
:101C48007047036D9BB9C36C012B08D0836CC3F339
:101C5800072302681361036D013303657047836CC2
:101C68000268DBB21361036D023303657047036DCD
:101C7800012B03D0036D022B08D07047836C0268D8
:101C8800DBB21361036D01330365704790F83D3093
:101C9800DBB2222B10D090F83D30DBB2212BECD1F7
:101CA800426A036812781A61436A01334362438DBA
:101CB800013B9BB24385E0E70268136843F48073F5
:101CC8001360704790F83E30DBB2402B0AD00369AE
:101CD800B3F5804F15D0036D002B34D0036D012B65
:101CE8003BD07047036D2BB9436C026803F0FE03C9
:101CF80013617047436C026843F00103DBB2136160
:101D0800704790F83D30DBB2212B0FD0436C02684E
:101D180043F00103DBB21361436B6BB1DB6B5BB167
:101D28000268536843F4006353607047436C026869
:101D380003F0FE031361EFE7836B002BD1D0DB6B5D
:101D4800002BEDD1CDE7436CC3F3C813026803F051
:101D5800060343F0F00313617047436CC3F3C813E1
:101D6800026803F0060343F0F1031361B9E7436C1B
:101D78000268DBB21361436B3BB1DB6B4BB10268AA
:101D8800536843F4006353607047826B002AF4D1B0
:101D9800FAE7836BDB6B002BF1D1F5E710B48BB05E
:101DA80090F83E30DAB2C16A046B90F83D30DBB28D
:101DB800222B0BD00023099303685A6909929B6967
:101DC8000993099B0BB05DF8044B7047036D0BB981
:101DD800402A17D0036D1BB90369B3F5404F19D0DA
:101DE800438D9BB2002B25D1029303685A69029256
:101DF8009A690292029A1A6842F400721A600023E1
:101E08000365DFE7009303685A6900929B690093B2
:101E1800009BD7E70023019303685A6901929A69E6
:101E28000192019A1A6842F480721A60036D0133B4
:101E38000365C7E7438D9BB2012B25D0438D9BB229
:101E4800022B7BD00268136843F480631360036835
:101E58005A6812F4006F0ED011F5803F07D001299F
:101E680005D0082903D0102901D0202903D15A68A8
:101E780042F480525A600023089303685A69089212
:101E88009B690893089BBAE711F5803F11D0082990
:101E980034D0202932D0122C2ED0042940D0022947
:101EA8003ED010293CD00268136823F48063136085
:101EB8003BE00268136823F48063136003685A6880
:101EC80012F4006F0CD01A6822F480621A600023A2
:101ED800039303685A6903929B690393039B8EE7F4
:101EE800002204925A6904929A690492049A1A6820
:101EF80042F400721A6082E70129CED002681368A2
:101F080023F4806313600023069303685A690692DA
:101F18009A690692069A1A6842F400721A606EE785
:101F28000268136843F48063136000230593036811
:101F38005A6905929B690593059B60E704290ED0B1
:101F480002290CD010290AD00268136823F4806390
:101F580013600268136843F40063136004E00268C6
:101F6800136843F48063136003685A6812F4006FBF
:101F78000ED011F5803F07D0012905D0082903D0DC
:101F8800102901D0202903D15A6842F480525A609E
:101F98000023079303685A6907929B690793079B75
:101FA8002DE7438D9BB253B1426A036812781A61D8
:101FB800436A01334362438D013B9BB243857047BB
:101FC800438D9BB253B103681A69436A1A70436A16
:101FD80001334362438D013B9BB243857047C36A1B
:101FE800B3F52A0F04D0C36AB3F12A4F03D0704760
:101FF8000123C36270470823C362F8E7002800F092
:10200800C880F8B5044690F83D30002B75D02423DD
:1020180084F83D302268136823F0010313602268B6
:10202800136843F4004313602268136823F40043E1
:10203800136001F013FC6268584B9A4262D8584BFF
:1020480098428CBF00230123002B40F0A480554BFD
:10205800A3FB00239B0C21684A6822F03F021A4325
:102068004A6025682A6A22F03F0266684B498E4218
:102078004ED8013313432B622568E96921F44F4197
:1020880021F0FF016368454A93424BD801385B0051
:10209800B0FBF3F30133C3F30B03042B38BF042362
:1020A8000B43EB6121680B6823F0C003E269206AE7
:1020B800024313430B6021688B6823F4034323F026
:1020C800FF032269E068024313438B602168CB68F1
:1020D80023F0FF036269A06902431343CB602268BF
:1020E800136843F00103136000202064202384F860
:1020F8003D30206384F83E00F8BD80F83C30FEF7A0
:10210800F3FC84E7284B98428CBF002301239BE70C
:102118004FF4967101FB03F32449A1FB03139B09B8
:102128000133A7E7A268BAB9461E03EB4307B6FB1B
:10213800F7F60136C6F30B06B6FA86F6760936BB0D
:10214800C2B9013803EB4303B0FBF3F30133C3F324
:102158000B0242F40043A3E7461E03EB830707EB99
:102168008707B6FBF7F60136C6F30B06B6FA86F60E
:102178007609E4E7013803EB830303EB8303B0FB41
:10218800F3F20132C2F30B0242F4404388E7012321
:1021980086E7012070470120AEE700BFA086010056
:1021A8007F841E0083DE1B43FF083D00D34D621071
:1021B80070477047704708B590F83D30DAB2438DE4
:1021C8009BB27BB1416A036809781961436A01339C
:1021D8004362438D013B9BB24385438D9BB20BB950
:1021E800292A00D008BD0268536823F4806353602D
:1021F80021230363282380F83D30FFF7DBFFF1E755
:10220800704708B590F83D30DAB2438D9BB27BB188
:1022180003681969436A1970436A01334362438D3D
:10222800013B9BB24385438D9BB20BB92A2A00D050
:1022380008BD0268536823F4806353602223036354
:10224800282380F83D30FFF7DBFFF1E7704708B53A
:1022580090F83D3003F02803282B07D003686FF06F
:1022680002025A61002380F83C3008BD02685368B6
:1022780023F48063536011F0040F0BD0002311F096
:10228800800F09D18289002180F83C101946FFF798
:10229800DDFFEAE70123F2E7028BF4E7704700006D
:1022A80008B590F83D30DBB2C26A082A01D0202A6E
:1022B80001D1282B06D0212B1ED003686FF4806231
:1022C8005A6108BD1A4BC3620268536823F4E0637D
:1022D800536003686FF480625A610268136823F4DC
:1022E8008063136000230363202280F83D2080F878
:1022F8003E30FFF7D3FFE4E70D4BC36221230363AE
:10230800202380F83D30002380F83E30026853686F
:1023180023F4E063536003686FF480625A610268D3
:10232800136823F480631360FFF744FFC9E700BF15
:102338000000FFFF704710B590F83D30DBB290F811
:102348003E20D2B2C46A018D09B9212B04D0212BB9
:102358003BD0402A37D010BD082C04D0202C02D006
:1023680014F5803F19D10268536823F4E063536081
:102378000268136843F40073136000230363202387
:1023880080F83D3090F83E30DBB2402B15D000236A
:1023980080F83E30FFF70CFFDDE70268536823F44E
:1023A800E063536011230363002380F83E30202349
:1023B80080F83D30FFF7FCFECDE7002380F83E3083
:1023C800FFF7B8FFC7E7222BC5D1438D9BB283B176
:1023D80090F83E30DBB2402B11D0426A0368127885
:1023E8001A61436A01334362438D013B9BB24385C3
:1023F800B1E70268536823F480635360ABE7FFF7E3
:1024080020FCA8E708B5C26A90F83D30DBB2212B62
:1024180005D090F83E30DBB2402B46D008BD438D46
:102428009BB203BB082A04D0202A02D012F5803FB1
:1024380025D10268536823F4E06353600268136887
:1024480043F40073136000230363202380F83D30B6
:1024580090F83E30DBB2402B21D0002380F83E308C
:10246800FFF7A6FEDAE7426A036812781A61436A40
:1024780001334362438D013B9BB24385CEE702683B
:10248800536823F4E063536011230363002380F847
:102498003E30202380F83D30FFF78AFEBEE7002358
:1024A80080F83E30FFF746FFB8E7FFF7CAFBB5E70D
:1024B800704708B590F83D30DBB2222B00D008BD3C
:1024C800438D9BB2032B14D903681A69436A1A70A7
:1024D800436A01334362438D013B9BB24385438D7D
:1024E8009BB2032BEBD10268536823F480635360DB
:1024F800E5E7C26A022AE2D0012BE0D80268136835
:1025080023F4806313600268536823F4E063536024
:1025180003681A69436A1A70436A01334362438D38
:10252800013B9BB24385202380F83D3090F83E3034
:10253800DBB2402B07D0002380F83E301223036320
:10254800FFF737FEBBE7002380F83E300363FFF751
:10255800AFFFB4E708B5C26A438D9BB2042B13D012
:10256800438D9BB2032B20D0438D9BB2022B36D0D8
:1025780003681A69436A1A70436A01334362438DD8
:10258800013B9BB243850FE00268536823F48063E4
:10259800536003681A69436A1A70436A01334362D5
:1025A800438D013B9BB2438508BD01684B6823F40A
:1025B80080634B60042A06D0022A04D0026813689C
:1025C80023F48063136003681A69436A1A70436AC4
:1025D80001334362438D013B9BB24385E4E7012A03
:1025E8000BD0102A09D0042A36D0022A34D0026827
:1025F800136843F40073136004E00268136823F45B
:102608008063136003681A69436A1A70426A531C2C
:102618004362438D013B9BB2438503681B6953703A
:10262800436A01334362438D013B9BB24385026891
:10263800536823F440735360202380F83D3090F8AA
:102648003E30DBB2402B0DD0002380F83E30122301
:102658000363FFF7AEFDA7E70268136843F48063DE
:102668001360CFE7002380F83E300363FFF720FFB5
:102678009AE77047704708B5806B90F83D30DBB239
:10268800426B0AB10021D163826B0AB10021D16388
:1026980001680A6822F480620A6000224285426B5F
:1026A8000AB100211165826B0AB100211165016828
:1026B8000A6822F001020A6090F83D20D2B2602A2E
:1026C8000CD003F02803282B12D0202380F83D30AB
:1026D800002380F83E30FFF7CCFF08BD202380F8A8
:1026E8003D30002380F83E300364FFF7C3FFF4E772
:1026F8000268136843F0010313600268136843F427
:102708008063136000230363282380F83D30E2E7E9
:1027180010B5044690F83D30DBB290F83E20D2B2B6
:10272800102A33D003F02802282A37D022685268AA
:1027380012F4006F04D1602B02D0202384F83D30BE
:102748000023236384F83E3023685A6812F4006F2C
:1027580048D05A6822F400625A60626B92F83530A9
:10276800DBB2012B20D0444B1365606B01F02CFCCD
:10277800002849D02268136823F00103136020233E
:1027880084F83D30606B036D98473DE0222BC9D13A
:1027980001680A6822F400620A60C3E70023236321
:1027A800282384F83D30CFE7A36B334A1A65A06B22
:1027B80001F00AFC40B323685A6912F0400F05D0B3
:1027C8001A69636A1A70636A01336362226813685C
:1027D80023F001031360202384F83D30A06B036DC0
:1027E800984711E094F83D20D2B2602A1FD05A6968
:1027F80012F0400F05D01A69636A1A70636A0133D0
:1028080063622046FFF735FF236C13F00F0F04D0E7
:102818002268536823F4E063536094F83D30DBB2D8
:10282800226C12F0040F01D0282B18D010BD2022E2
:1028380084F83D20002222645A6912F0400F05D026
:102848001A69636A1A70636A0133636222681368DB
:1028580023F0010313602046FFF70CFFD4E7074B72
:10286800E36200232363202284F83D2084F83E306D
:102878002046FFF713FDD9E77F2600080000FFFF79
:1028880030B583B0044690F83D50EDB20268536805
:1028980023F4E06353600023019303685A690192AB
:1028A8001A6842F001021A60019B0268136823F457
:1028B8008063136003685A6812F4006F38D0222DC1
:1028C80021D02A2D1FD0426B1268526892B24285DD
:1028D800428D92B21AB1026C42F0040202645A6844
:1028E80022F400625A60606B01F070FC01281FD06E
:1028F800636B434A1A65606B01F066FBC0B1606B9D
:10290800036D984714E0A26B1268526892B2628510
:10291800628D92B21AB1226C42F0040222645A68A3
:1029280022F400625A60A06B01F050FC012840D1EB
:10293800638D9BB223B323685A6912F0040F09D040
:102948001A69636A1A70636A01336362638D013BB3
:102958009BB2638523685A6912F0400F09D01A693F
:10296800636A1A70636A01336362638D013B9BB2C9
:102978006385638D9BB21BB1236C43F0040323640E
:10298800236C13BB2A2D25D094F83D30DBB2282BBD
:1029980029D0236B222B01D0222D19D100232363A8
:1029A800202284F83D2084F83E302046FFF728FC9A
:1029B8000EE0A36B124A1A65A06B01F005FB002814
:1029C800B6D0A06B036D9847B2E72046FFF7A0FE8C
:1029D80003B030BD00232363282384F83D3020460C
:1029E800FFF70EFCD0E7074BE362002323632022A6
:1029F80084F83D2084F83E302046FFF74FFCE7E797
:102A08007F2600080000FFFF70B50446026855687D
:102A1800C66A90F83E30DBB290F83D10102B14D007
:102A2800C8B2402B11D0236C002B71D05369002100
:102A380013F0020F6FD015F4007F6CD0236C03B134
:102A480091692046FFF703FC70BD9069536913F044
:102A5800010105D1B6F52A0FF6D0B6F12A4FF3D009
:102A680011B115F4007F25D113F0080F02D015F429
:102A7800007F26D113F0020F02D015F4007F24D175
:102A880010F0040F29D0526812F4006FDCD113F053
:102A9800800F05D015F4806F02D013F0040F18D002
:102AA80013F0040FD0D015F4007FCDD02046FFF7E7
:102AB800A9FCC9E72046FFF792FA2046FFF702F97A
:102AC800C2E72046FFF753F9BEE72046FFF766F94D
:102AD800BAE72046FFF72FFCB6E7526812F4006FFA
:102AE800B2D113F0400F05D015F4806F02D013F067
:102AF800040F09D013F0040FA6D015F4007FA3D05B
:102B08002046FFF727FD9FE72046FFF7D2FC9BE70B
:102B1800916953698CE713F0100F02D015F4007F08
:102B280017D1212819D0292817D013F0400F05D024
:102B380015F4806F02D013F0040F27D013F0040FA0
:102B480082D015F4007F3FF47FAF2046FFF738FAB4
:102B58007AE72046FFF794FE76E713F0800F05D05A
:102B680015F4806F02D013F0040F0BD013F0040F8C
:102B78003FF46AAF15F4007F3FF466AF2046FFF7D5
:102B880010FA61E72046FFF716FB5DE72046FFF7DE
:102B980038FB59E7F8B5044603685D695F6890F843
:102BA8003E20D2B215F4807F07D017F4807F3CD046
:102BB8006FF480715961012600E0002615F4007F4A
:102BC80008D017F4807F05D046F0020623686FF41A
:102BD8000071596115F4806F19D017F4807F16D0F1
:102BE800638D99B294F83D30DBB2206B202A1ED059
:102BF80023686FF48061596146F00406102A01D0F9
:102C0800402A04D12268136843F40073136015F452
:102C1800006F08D017F4807F05D046F008062368B7
:102C28006FF400625A6186B9F8BD0026C6E700292C
:102C3800DED1212B05D0292B03D0282BD8D1212850
:102C4800D6D12046FFF72CFBE1E7236C1E43266410
:102C58002046FFF75DFDE7E700283BD010B50446A6
:102C68000023836290F85130002B2ED0022384F881
:102C780051302268136823F0400313606368A26828
:102C88001343E26813432269134362691343A26939
:102C980002F400721343E2691343226A1343A16AE0
:102CA80022680B431360638B03F00403616A226894
:102CB8000B4353602268D36923F40063D361002077
:102CC8006065012384F8513010BD80F85030FDF75D
:102CD800EDFFCBE7012070477047000030B585B0A5
:102CE8000446026850689368C3F3801149B913F029
:102CF800010F06D010F0400F03D0236C20469847F0
:102D080008E013F0020F07D010F0800F04D0636CB6
:102D18002046984705B030BDC3F340151DB911B919
:102D280013F4807FF6D010F0200FF3D079B194F827
:102D38005110C9B2032953D0616D41F00401616596
:102D480000210091D168009191680091009965B1C6
:102D5800616D41F001016165002102919168029164
:102D6800116821F040011160029A13F4807F09D0A4
:102D7800636D43F0080363650023039323689B682E
:102D88000393039B636D002BC4D02268536823F020
:102D9800E0035360012384F8513010F0030F27D06B
:102DA8002268536823F003035360E36C4BB1124A63
:102DB8001A65E06C01F008F918B1636D43F040033F
:102DC8006365A36C002BA5D00B4A1A65A06C01F0B3
:102DD800FBF800289ED0636D43F04003636599E7D4
:102DE80000230193D368019393680193019B91E7B2
:102DF8002046FFF771FF8DE7052E000808B5806BA8
:102E08000023C387C386FFF767FF08BD30B4036A92
:102E180023F001030362056A4268846924F073049D
:102E28000B681C4325F002058B682B43104DA84204
:102E380003D005F58065A84205D123F00803CD68C5
:102E48002B4323F004030A4DA84203D005F58065FF
:102E5800A84205D122F440724D6915438A692A4374
:102E6800426084614A684263036230BC704700BFB5
:102E78000000014030B4036A23F480730362036ADC
:102E88004268C46924F073040D682C4323F400736A
:102E98008D6843EA0523124DA84203D005F58065E5
:102EA800A84206D123F40063CD6843EA052323F43E
:102EB80080630B4DA84203D005F58065A84207D171
:102EC80022F440524D6942EA05128D6942EA051220
:102ED8004260C4614A68C263036230BC704700BF85
:102EE8000000014030B4036A23F480530362036A8C
:102EF8004468C26922F4E6420D6842EA052223F4D6
:102F080000538D6843EA0533094DA84203D005F5FF
:102F18008065A84204D124F480444D6944EA8514AC
:102F28004460C2614A680264036230BC704700BFF3
:102F38000000014010B4036A046A24F0010404622A
:102F4800846924F0F00444EA021223F00A030B43D4
:102F5800826103625DF8044B704710B4036A23F082
:102F6800100303628469036A24F4704444EA023259
:102F780023F0A00343EA0113826103625DF8044B66
:102F88007047836823F07003194341F0070181609B
:102F980070470268D36843F00103D36002689368FE
:102FA80003F00703062B03D0136843F001031360F3
:102FB80000207047704770477047704770477047E8
:102FC80010B5044603681A6912F0020F11D0DA68C6
:102FD80012F0020F0DD06FF002021A61012303777D
:102FE80003689B6913F0030F70D0FFF7E6FF002317
:102FF800237723681A6912F0040F12D0DA6812F0E6
:10300800040F0ED06FF004021A610223237723689D
:103018009B6913F4407F5FD02046FFF7CEFF002363
:10302800237723681A6912F0080F12D0DA6812F0B1
:10303800080F0ED06FF008021A6104232377236863
:10304800DB6913F0030F4ED02046FFF7B6FF0023CD
:10305800237723681A6912F0100F12D0DA6812F079
:10306800100F0ED06FF010021A610823237723681F
:10307800DB6913F4407F3DD02046FFF79EFF002315
:10308800237723681A6912F0010F03D0DA6812F067
:10309800010F36D123681A6912F0800F03D0DA685D
:1030A80012F0800F34D123681A6912F0400F03D050
:1030B800DA6812F0400F32D123681A6912F0200F33
:1030C80003D0DA6812F0200F30D110BDFFF774FF7B
:1030D8002046FFF773FF8AE72046FFF76DFF20467B
:1030E800FFF76CFF9BE72046FFF766FF2046FFF7D8
:1030F80065FFACE72046FFF75FFF2046FFF75EFF5E
:10310800BDE76FF001021A612046FDF705FBC1E734
:103118006FF080021A61204600F07CFAC3E76FF076
:1031280040021A612046FFF74AFFC5E76FF0200208
:103138001A61204600F06DFAC7E700000368304ABC
:10314800904212D0B0F1804F0FD0A2F57C4290424D
:103158000BD002F58062904207D002F5806290425F
:1031680003D002F57842904203D123F070034A68F5
:103178001343234A90422AD0B0F1804F27D0A2F5BA
:103188007C42904223D002F5806290421FD002F523
:10319800806290421BD002F57842904217D002F527
:1031A8007052904213D002F5806290420FD002F51F
:1031B800806290420BD0A2F59832904207D002F577
:1031C8008062904203D002F58062904203D123F4DA
:1031D8004073CA68134323F080034A6913430360AA
:1031E8008B68C3620B688362054B984203D003F572
:1031F8008063984201D10B690363012343617047DF
:1032080000000140A8B110B5044690F83D305BB10C
:10321800022384F83D30211D2068FFF78FFF01232A
:1032280084F83D30002010BD80F83C30FDF738FEB2
:10323800EEE701207047A8B110B5044690F83D307C
:103248005BB1022384F83D30211D2068FFF776FF2B
:10325800012384F83D30002010BD80F83C30FFF792
:10326800A9FEEEE701207047A8B110B5044690F812
:103278003D305BB1022384F83D30211D2068FFF703
:103288005DFF012384F83D30002010BD80F83C30FC
:10329800FFF791FEEEE701207047000030B4036AA3
:1032A80023F010030362036A4468826922F4E64249
:1032B8000D6842EA052223F020038D6843EA0513CE
:1032C800114DA84203D005F58065A84206D123F028
:1032D8008003CD6843EA051323F040030A4DA84252
:1032E80003D005F58065A84207D124F440644D69F0
:1032F80044EA85048D6944EA8504446082614A6829
:103308008263036230BC70470000014090F83C3093
:10331800012B28D010B50446012380F83C30022345
:1033280080F83D300C2A0BD8DFE802F0070A0A0AB9
:10333800110A0A0A150A0A0A19000068FFF766FD49
:10334800012384F83D30002084F83C0010BD00685B
:10335800FFF7A4FFF4E70068FFF78CFDF0E70068CB
:10336800FFF7C0FDECE70220704738B590F83C3015
:10337800012B66D00D460446012380F83C30022319
:1033880080F83D300C2A1AD8DFE802F0071919191D
:10339800201919193419191947000068FFF736FD63
:1033A8002268936943F0080393612268936923F0C4
:1033B800040393612268936929690B43936101238C
:1033C80084F83D30002084F83C0038BD0068FFF7E1
:1033D80065FF2268936943F40063936122689369E7
:1033E80023F48063936122689369296943EA01237E
:1033F8009361E4E70068FFF73DFD2268D36943F075
:103408000803D3612268D36923F00403D3612268D7
:10341800D36929690B43D361D1E70068FFF762FDDF
:103428002268D36943F40063D3612268D36923F423
:103438008063D3612268D369296943EA0123D36190
:10344800BDE70220C1E710B4846824F47F4442EA4F
:1034580003230B43234383605DF8044B704790F8C4
:103468003C30012B66D010B50446012380F83C306F
:10347800022380F83D300268936823F47F4323F0E9
:10348800770393600B68402B4AD013D9602B3DD04B
:103498001ED9702B28D0B3F5005F30D1CB684A68AD
:1034A80089680068FFF7CFFF2268936843F4804378
:1034B800936024E0102B06D004D9202B03D0302BA6
:1034C80001D01CE0DBB919462068FFF75AFD16E069
:1034D800502B14D1CA6849680068FFF72BFD5021AA
:1034E8002068FFF74EFD0AE0CB684A6889680068E3
:1034F800FFF7A9FF2268936843F0770393600123DD
:1035080084F83D30002084F83C0010BDCA68496842
:103518000068FFF722FD60212068FFF732FDEEE723
:10352800CA6849680068FFF705FD40212068FFF771
:1035380028FDE4E70220704790F83C30012B3BD08F
:1035480030B4012380F83C30022380F83D30036812
:103558005C689D6824F070040A6822435A60036816
:10356800164A93421AD0B3F1804F17D0A2F57C4285
:10357800934213D002F5806293420FD002F5806225
:1035880093420BD002F57842934207D002F570526D
:10359800934203D0A2F59432934204D125F08005DA
:1035A8004A6815439D60012380F83D30002380F868
:1035B8003C30184630BC704702207047000001407C
:1035C80090F83C30012B22D0012380F83C30CB68A6
:1035D80023F440738A68134323F480634A681343CF
:1035E80023F400630A68134323F480530A691343DE
:1035F80023F400534A69134323F48043CA691343ED
:1036080002685364002380F83C3018467047022053
:103618007047704770470000324B9B6803F00C03FB
:10362800042B5CD0082B01D02F4870472DE9F04BB4
:103638002C4B5A6802F03F025B6813F4800F2BD0C2
:10364800284B5B68C3F388131E4600275C010025DE
:10365800E41A65EB0705A90141EA9461A001001B82
:1036680061EB0501CB0043EA5073C400A01943EB9A
:1036780007014B0243EAD05344022046194600236F
:10368800FCF758FE174B5B68C3F3014301335B003B
:10369800B0FBF3F0BDE8F08B124B5B68C3F3881303
:1036A8001E4600275C010025E41A65EB0705A90101
:1036B80041EA9461A001001B61EB0501CB0043EADC
:1036C8005073C400A01943EB07018B0243EA9053DF
:1036D8008402204619460023FCF72CFED2E7034853
:1036E800704700BF003802400024F40000127A003E
:1036F800002800F09E8070B50446504B1B6803F00C
:103708000F038B4209D2CBB24C4A1370136803F0F3
:103718000F038B4201D0012070BD236813F0020F04
:1037280017D013F0040F04D0454A936843F4E053CC
:103738009360236813F0080F04D0414A936843F458
:10374800604393603E4A936823F0F003A068034304
:1037580093600D46236813F0010F32D06368012B84
:1037680021D09A1E012A25D9354A126812F0020F73
:1037780061D033498A6822F0030213438B6000F05A
:10378800A3FD06462E4B9B6803F00C036268B3EB5F
:10379800820F16D000F098FD801B41F288339842C2
:1037A800F0D90320B8E7264A126812F4003FE0D1A6
:1037B8000120B1E7224A126812F0007FD9D1012016
:1037C800AAE71E4B1B6803F00F03AB4209D9EAB204
:1037D8001A4B1A701B6803F00F03AB4201D001208B
:1037E8009AE7236813F0040F06D0154A936823F468
:1037F800E053E1680B439360236813F0080F07D088
:103808000F4A936823F46043216943EAC103936034
:10381800FFF702FF0A4B9B68C3F30313094AD35C03
:10382800D840094B1860094B1868FEF727F80020A4
:1038380072E70120704701206EE700BF003C02409C
:1038480000380240604700080800002004000020FB
:10385800014B1868704700BF0800002008B5FFF743
:10386800F7FF044B9B68C3F38223034AD35CD84019
:1038780008BD00BF00380240704700080F230360EE
:103888000B4B9A6802F0030242609A6802F0F00259
:1038980082609A6802F4E052C2609B68DB0803F415
:1038A800E0530361034B1B6803F00F030B60704781
:1038B80000380240003C024070B582B004460368FC
:1038C80013F0010F3BD0A74B9B6803F00C03042BAC
:1038D8002CD0A44B9B6803F00C03082B21D0636801
:1038E800B3F5803F4FD0B3F5A02F52D09D4B1A6847
:1038F80022F480321A601A6822F480221A606368FF
:10390800002B50D000F0E0FC0546964B1B6813F4E2
:10391800003F14D100F0D8FC401B6428F5D90320DF
:103928008AE1904B5B6813F4800FD8D08D4B1B68ED
:1039380013F4003F03D06368002B00F07A812368FA
:1039480013F0020F55D0874B9B6813F00C0F3ED035
:10395800844B9B6803F00C03082B33D0E368002BDF
:1039680068D0814B01221A6000F0AEFC05467D4B01
:103978001B6813F0020F54D100F0A6FC401B02286C
:10398800F5D9032058E1774A136843F4803313606C
:10399800B5E7744B1A6842F480221A601A6842F438
:1039A80080321A60ABE700F08FFC05466D4B1B6850
:1039B80013F4003FC3D000F087FC401B6428F5D9FE
:1039C800032039E1674B5B6813F4800FC6D1654B60
:1039D8001B6813F0020F04D0E368012B01D001200B
:1039E8002AE1604A136823F0F803216943EAC10316
:1039F8001360236813F0080F40D0636963B35B4B0F
:103A080001221A6000F060FC0546564B5B6F13F00C
:103A1800020F33D100F058FC401B0228F5D90320CF
:103A28000AE1504A136823F0F803216943EAC10305
:103A38001360DEE74C4B00221A6000F045FC054697
:103A4800484B1B6813F0020FD3D000F03DFC401B1D
:103A58000228F5D90320EFE0444B00221A6000F059
:103A680033FC05463F4B5B6F13F0020F06D000F0A6
:103A78002BFC401B0228F5D90320DDE0236813F056
:103A8800040F78D0374B1B6C13F0805F33D10023C1
:103A98000193344B1A6C42F080521A641B6C03F089
:103AA80080530193019B0125314B1B6813F4807FE0
:103AB80023D0A368012B34D0052B38D0294B1A6F9B
:103AC80022F001021A671A6F22F004021A67A3682B
:103AD800002B36D000F0F8FB0646224B1B6F13F084
:103AE800020F47D100F0F0FB801B41F28833984267
:103AF800F3D90320A0E00025D6E71D4A136843F454
:103B08008073136000F0E0FB0646194B1B6813F442
:103B1800807FCED100F0D8FB801B0228F5D9032086
:103B28008AE0104A136F43F001031367CFE70D4B88
:103B38001A6F42F004021A671A6F42F001021A67FC
:103B4800C5E700F0C1FB0646064B1B6F13F0020FDA
:103B580010D000F0B9FB801B41F288339842F3D9AA
:103B6800032069E00038024000004742800E4742C7
:103B780000700040E5B9A369002B5CD0304A926818
:103B880002F00C02082A59D0022B17D02D4B002224
:103B98001A6000F099FB0446294B1B6813F0007F5C
:103BA80045D000F091FB001B0228F5D9032043E023
:103BB800234A136C23F080531364DCE7214B002263
:103BC8001A6000F081FB05461D4B1B6813F0007F4F
:103BD80006D000F079FB401B0228F5D903202BE022
:103BE800E369226A1343626A43EA8213A26A5208AB
:103BF800013A43EA0243E26A43EA0263226B43EA78
:103C080002730F4A53600F4B01221A6000F05CFBED
:103C180004460B4B1B6813F0007F06D100F054FBE1
:103C2800001B0228F5D9032006E0002004E000204C
:103C380002E0012000E0002002B070BD0120FBE797
:103C4800003802406000474200230F2B00F2D18069
:103C5800F0B583B039E0062200E00022AA403A43DA
:103C68000234644D45F82420634A1468F24302EA9A
:103C780004054F6817F4803F01D046EA04055E4CFE
:103C88002560646802EA04054F6817F4003F01D014
:103C980046EA0405584C6560A46802EA04054F68C2
:103CA80017F4801F01D046EA0405534CA560E46868
:103CB80022404D6815F4001F01D046EA04024E4C1C
:103CC800E26001330F2B00F2928001229A400C68C7
:103CD80004EA0206B242F4D14C68651E012D03D9EC
:103CE800112C01D0122C12D185685F000324BC402E
:103CF80025EA0405CC68BC402C438460456825EA65
:103D080002054C68C4F300129A402A434260C46812
:103D18005F000322BA40D24314408D68BD4025435A
:103D2800C5604C68022C01D0122C13D1DD0808356F
:103D380050F825E003F007044FEA840C0F2404FA36
:103D48000CF42EEA040E0C6904FA0CF444EA0E048E
:103D580040F82540046822404C6804F00304BC4045
:103D6800224302604A6812F0805FAAD000220192C2
:103D7800224A546C44F480445464526C02F48042E5
:103D88000192019A9C08A51C1A4A52F8257003F062
:103D9800030295000F22AA4027EA0207184A904218
:103DA8003FF45BAF02F58062904216D002F5806264
:103DB800904214D002F58062904212D002F58062DF
:103DC800904210D002F5806290420ED002F58062D7
:103DD80090423FF440AF072240E701223EE702222B
:103DE8003CE703223AE7042238E7052236E703B026
:103DF800F0BD704700380140003C014000380240E7
:103E08000000024012B9090481617047816170475E
:103E18007047000008B5054B5B69034200D108BD37
:103E2800024B5861FFF7F4FFF9E700BF003C01407F
:103E38000268D3B2103B0B49A1FB03131B090A49C3
:103E4800C95CC165032B06D822F47F7222F00302F5
:103E58008265806D704722F47F7222F0030204327B
:103E68008265F6E7ABAAAAAA58470008836A82695E
:103E780092B9012B0AD01BB1022B01D00020704748
:103E8800C36A13F0807F2CD100207047C36AB3F156
:103E9800C07F28D000207047B2F5005F05D0022B04
:103EA80029D9032B15D000207047032B03D8DFE84E
:103EB80003F01C041C0A00207047C36A13F0807FBB
:103EC80015D100207047C36AB3F1C07F11D000201C
:103ED8007047C36A13F0807F01D00120704700202B
:103EE800704701207047012070470120704701206A
:103EF80070470120704701207047000070B50446E4
:103F080000F0E2F9002C5BD00546002384F8343039
:103F1800022384F835302268136823F00103136004
:103F280023681A6812F0010F0AD000F0CDF9401B7F
:103F38000528F5D920236365032084F8350070BD72
:103F48001A68204810406168A2680A43E1680A4379
:103F580021690A4361690A43A1690A43E1690A437D
:103F6800216A0A430243616A04291ED01A6026683E
:103F7800756925F00705636A1D43042B07D1A36AF9
:103F88001D43E36A1BB12046FFF770FF90B97561C6
:103F98002046FFF74DFFE26D3F23934083600020EA
:103FA8006065012384F83530C9E7E16A206B014375
:103FB8000A43DBE740236365012084F83500BEE748
:103FC8000120BCE73F8010E090F83530DBB2022BCF
:103FD80003D08023436501207047052380F83530DE
:103FE8000268136823F00103136000207047000083
:103FF800F0B583B0044600230193724B1D68724BE1
:10400800A3FB0535AD0A876D3E68C26D0823934052
:10401800334210D003681A6812F0040F0BD01A68E4
:1040280022F004021A60C26D08239340BB60436DFE
:1040380043F001034365E26D01239340334209D005
:104048002268526912F0800F04D0BB60636D43F0A0
:1040580002036365E26D04239340334209D022686A
:10406800126812F0020F04D0BB60636D43F00403C2
:104078006365E26D10239340334224D022681268AE
:1040880012F0080F1FD0BB6023681A6812F4802F43
:104098000DD01B6813F4002F04D1236C9BB120466C
:1040A800984710E0A36C73B1204698470BE01A6854
:1040B80012F4807F03D11A6822F008021A60236C78
:1040C8000BB120469847E26D20239340334255D0E8
:1040D8002268126812F0100F50D0BB6094F8353087
:1040E800DBB2052B0ED023681A6812F4802F33D068
:1040F8001B6813F4002F2AD1636C002B3ED0204696
:1041080098473BE02268136823F01603136022687F
:10411800536923F080035361236CA3B122681368A9
:1041280023F008031360E26D3F239340BB60002334
:1041380084F83430012384F83530236D002B3FD0C8
:10414800204698473CE0A36C002BE7D1EBE7E36BF4
:10415800A3B12046984711E01A6812F4807F09D16C
:104168001A6822F010021A60002384F83430012300
:1041780084F83530E36B0BB120469847636DFBB18B
:10418800636D13F0010F17D0052384F835302268CA
:10419800136823F001031360019B01330193AB42C1
:1041A80004D823681B6813F0010FF5D1002384F8A5
:1041B8003430012384F83530E36C0BB1204698473E
:1041C80003B0F0BD08000020B5814E1B90F8350003
:1041D80070470000074AD36823F4E0631B041B0CF4
:1041E800000200F4E060184340F0BF6040F4003083
:1041F800D060704700ED00E030B4174BDB68C3F3C4
:104208000223C3F10704042C28BF04241D1D062D16
:1042180018D9033B4FF0FF3505FA04F421EA0401ED
:10422800994005FA03F322EA0303194300280BDB3C
:104238000901C9B200F1604000F5614080F800133F
:1042480030BC70470023E5E700F00F000901C9B250
:10425800024B1954F4E700BF00ED00E014ED00E054
:10426800002807DB00F01F02400901239340024A9F
:1042780042F82030704700BF00E100E008B50B4B62
:104288001A6842F400721A601A6842F480621A606E
:104298001A6842F480721A600320FFF79BFF00201F
:1042A800FDF7ECFAFDF7CEFA002008BD003C02400D
:1042B800034A1168034B1B780B441360704700BF17
:1042C8001404002000000020014B1868704700BF4C
:1042D80014040020054BD3F8882042F47002C3F878
:1042E80088204FF000629A60704700BF00ED00E040
:1042F800C36813F4005F01D0012070472DE9F04B2B
:1043080084B00D460446C36823F4164323F00C0317
:104318004A68C9680A4329690A43A9690A431343D1
:10432800C360AB68026922F44052134303616B69AE
:10433800426922F4407213434361684600F0C2F9AF
:10434800544B9C421CD0544B9C4221D0534B9C4212
:1043580020D0534B9C421FD0524B9C421ED0524BF4
:104368009C421DD0514B9C421CD0514B9C421BD0AF
:10437800504B9C421AD0504B9C4219D0012085E0EA
:104388000398002800F081802B689BB901207DE00C
:104398000298F6E70298F4E70398F2E70298F0E744
:1043A8000298EEE70298ECE70298EAE70398E8E754
:1043B8000398E6E7AA69B2F5004F30D04FF000093C
:1043C800061849EB090716EB000B47EB090C4FEAF7
:1043D800CC0242EA5B724FEACB0594469A009B0FE7
:1043E800401949EB0C01FBF7A5FF344DA5FB003143
:1043F80049090A0192B2642303FB11031B013233FA
:10440800A5FB0313C3F34F1303F0F0010A4492B260
:1044180003F00F0313449BB2A360002036E08346E9
:104428004FF0000C06184CEB0C0716EB000847EB96
:104438000C094FEAC90242EA58724FEAC805914688
:104448000021DA1841EB01031BEB05004CEB0901D5
:10445800FBF770FF194DA5FB003149090A0192B21B
:10446800642303FB1103DB003233A5FB0313C3F3FF
:104478004F13590001F4F8710A4492B203F007038C
:1044880013449BB2A360002000E0012004B0BDE803
:10449800F08B00BF0010014000440040004800407D
:1044A80000140140004C00400050004000780040DB
:1044B800007C004000180140001C01401F85EB51A2
:1044C800F0B40A6892FAA2F2B2FA82F22DE00E690A
:1044D800C46893FAA3F5B5FA85F56D00032707FAC2
:1044E80005F524EA050493FAA3F5B5FA85F56D00F8
:1044F80006FA05F52C43C4604C68022C48D04C6879
:10450800056893FAA3F6B6FA86F67600032707FA43
:1045180006F625EA060593FAA3F3B3FA83F35B00DC
:1045280004FA03F32B43036001320B6833FA02F4F5
:1045380062D0012494402340F6D04C68013C012C01
:10454800C5D88E68846893FAA3F5B5FA85F56D0029
:10455800032707FA05F524EA050493FAA3F5B5FA43
:1045680085F56D0006FA05F52C438460CD6844682E
:1045780093FAA3F6B6FA86F70126BE4024EA0604A3
:1045880093FAA3F6B6FA86F6B5402C4344609EE744
:1045980093FAA3F4B4FA84F4072C15D84E69046A84
:1045A80093FAA3F5B5FA85F5AD000F2707FA05F5D7
:1045B80024EA050493FAA3F5B5FA85F5AD0006FAE1
:1045C80005F52C4304629AE74D69466A1C0A94FA79
:1045D800A4F7B7FA87F7BF004FF00F0C0CFA07F7EC
:1045E80026EA070694FAA4F4B4FA84F4A40005FAB7
:1045F80004F43443446282E70020F0BC70470000B2
:10460800034B9B68C3F30313024AD35CD84070473B
:104618000038024060470008034B9B68C3F38223BD
:10462800024AD35CD84070470038024070470008FF
:10463800034B9B68C3F34233024AD35CD8407047AC
:1046480000380240704700080F4B5B6803F4800392
:1046580023B90E4B082803D0002070470C4BF9E70C
:10466800094A506800F03F00B3FBF0F35068C0F30C
:10467800881000FB03F05368C3F3014301335B0068
:10468800B0FBF3F0704700BF003802400024F4008C
:1046980000127A0008B5084B9B6803F00C03042B42
:1046A80007D0082B01D0054808BD0820FFF7CCFF2C
:1046B800FAE70348F8E700BF003802400024F40096
:1046C80000127A0010B50446FFF7E4FF2060FFF7F8
:1046D80097FF6060FFF7A0FFA0606068FFF7A8FF82
:1046E800E06010BDDFF834D0002103E00C4B5B58CC
:1046F800435004310B480C4B42189A42F6D30B4AEC
:1047080002E0002342F8043B094B9A42F9D3FFF731
:10471800E1FDFBF7A1FDFBF7D7FF7047000005207F
:1047280088470008000000200C0000200C00002032
:1047380018040020FEE70000F8B500BFF8BC08BC6C
:104748009E467047F8B500BFF8BC08BC9E46704747
:1047580000061016000610160000000000000000F9
:10476800010203040607080900000000010203040F
:08477800F4BBFF7F010000000B
:0447800041020008EA
:04478400190200080E
:0C47880001000000100000000024F400FC
:04000005080046EDBC
:00000001FF
